{
  "_format": "hh-sol-artifact-1",
  "contractName": "TokenLock",
  "sourceName": "contracts/TokenLock.sol",
  "abi": [
    {
      "inputs": [
        {
          "internalType": "address",
          "name": "_historyContract",
          "type": "address"
        },
        {
          "internalType": "address",
          "name": "_beneficiary",
          "type": "address"
        },
        {
          "internalType": "uint256",
          "name": "_lockPeriod",
          "type": "uint256"
        }
      ],
      "stateMutability": "payable",
      "type": "constructor"
    },
    {
      "anonymous": false,
      "inputs": [
        {
          "indexed": false,
          "internalType": "uint256",
          "name": "",
          "type": "uint256"
        }
      ],
      "name": "Claimed",
      "type": "event"
    },
    {
      "inputs": [
        {
          "internalType": "address",
          "name": "contractAddress",
          "type": "address"
        },
        {
          "internalType": "address",
          "name": "_beneficiary",
          "type": "address"
        },
        {
          "internalType": "uint256",
          "name": "_value",
          "type": "uint256"
        },
        {
          "internalType": "uint256",
          "name": "_lockPeriod",
          "type": "uint256"
        },
        {
          "internalType": "string",
          "name": "typeOf",
          "type": "string"
        },
        {
          "internalType": "address",
          "name": "_deployer",
          "type": "address"
        }
      ],
      "name": "addToHistory",
      "outputs": [],
      "stateMutability": "nonpayable",
      "type": "function"
    },
    {
      "inputs": [],
      "name": "beneficiary",
      "outputs": [
        {
          "internalType": "address",
          "name": "",
          "type": "address"
        }
      ],
      "stateMutability": "view",
      "type": "function"
    },
    {
      "inputs": [],
      "name": "claim",
      "outputs": [],
      "stateMutability": "nonpayable",
      "type": "function"
    },
    {
      "inputs": [],
      "name": "depositor",
      "outputs": [
        {
          "internalType": "address",
          "name": "",
          "type": "address"
        }
      ],
      "stateMutability": "view",
      "type": "function"
    },
    {
      "inputs": [],
      "name": "historyContract",
      "outputs": [
        {
          "internalType": "address",
          "name": "",
          "type": "address"
        }
      ],
      "stateMutability": "view",
      "type": "function"
    },
    {
      "inputs": [],
      "name": "lockDelay",
      "outputs": [
        {
          "internalType": "uint256",
          "name": "",
          "type": "uint256"
        }
      ],
      "stateMutability": "view",
      "type": "function"
    },
    {
      "inputs": [],
      "name": "lockPeriod",
      "outputs": [
        {
          "internalType": "uint256",
          "name": "",
          "type": "uint256"
        }
      ],
      "stateMutability": "view",
      "type": "function"
    }
  ],
  "bytecode": "0x608060405260405162000f1438038062000f148339818101604052810190620000299190620002f6565b82600460006101000a81548173ffffffffffffffffffffffffffffffffffffffff021916908373ffffffffffffffffffffffffffffffffffffffff160217905550336000806101000a81548173ffffffffffffffffffffffffffffffffffffffff021916908373ffffffffffffffffffffffffffffffffffffffff16021790555081600160006101000a81548173ffffffffffffffffffffffffffffffffffffffff021916908373ffffffffffffffffffffffffffffffffffffffff16021790555080600281905550806201518062000103919062000381565b42620001109190620003cc565b600381905550620001a530600160009054906101000a900473ffffffffffffffffffffffffffffffffffffffff16346002546040518060400160405280600f81526020017f4c6f636b657220436f6e7472616374000000000000000000000000000000000081525060008054906101000a900473ffffffffffffffffffffffffffffffffffffffff16620001ae60201b60201c565b50505062000537565b600460009054906101000a900473ffffffffffffffffffffffffffffffffffffffff1673ffffffffffffffffffffffffffffffffffffffff16637247741b8787878787876040518763ffffffff1660e01b81526004016200021596959493929190620004c3565b600060405180830381600087803b1580156200023057600080fd5b505af115801562000245573d6000803e3d6000fd5b50505050505050505050565b600080fd5b600073ffffffffffffffffffffffffffffffffffffffff82169050919050565b6000620002838262000256565b9050919050565b620002958162000276565b8114620002a157600080fd5b50565b600081519050620002b5816200028a565b92915050565b6000819050919050565b620002d081620002bb565b8114620002dc57600080fd5b50565b600081519050620002f081620002c5565b92915050565b60008060006060848603121562000312576200031162000251565b5b60006200032286828701620002a4565b93505060206200033586828701620002a4565b92505060406200034886828701620002df565b9150509250925092565b7f4e487b7100000000000000000000000000000000000000000000000000000000600052601160045260246000fd5b60006200038e82620002bb565b91506200039b83620002bb565b9250828202620003ab81620002bb565b91508282048414831517620003c557620003c462000352565b5b5092915050565b6000620003d982620002bb565b9150620003e683620002bb565b925082820190508082111562000401576200040062000352565b5b92915050565b620004128162000276565b82525050565b6200042381620002bb565b82525050565b600081519050919050565b600082825260208201905092915050565b60005b838110156200046557808201518184015260208101905062000448565b60008484015250505050565b6000601f19601f8301169050919050565b60006200048f8262000429565b6200049b818562000434565b9350620004ad81856020860162000445565b620004b88162000471565b840191505092915050565b600060c082019050620004da600083018962000407565b620004e9602083018862000407565b620004f8604083018762000418565b62000507606083018662000418565b81810360808301526200051b818562000482565b90506200052c60a083018462000407565b979650505050505050565b6109cd80620005476000396000f3fe608060405234801561001057600080fd5b506004361061007d5760003560e01c80634e71d92d1161005b5780634e71d92d146100da578063c7c4ff46146100e4578063c943dc4014610102578063cc158921146101205761007d565b806327711fae1461008257806338af3eed1461009e5780633fd8b02f146100bc575b600080fd5b61009c60048036038101906100979190610629565b61013e565b005b6100a66101dd565b6040516100b391906106e1565b60405180910390f35b6100c4610203565b6040516100d1919061070b565b60405180910390f35b6100e2610209565b005b6100ec6103eb565b6040516100f991906106e1565b60405180910390f35b61010a61040f565b604051610117919061070b565b60405180910390f35b610128610415565b60405161013591906106e1565b60405180910390f35b600460009054906101000a900473ffffffffffffffffffffffffffffffffffffffff1673ffffffffffffffffffffffffffffffffffffffff16637247741b8787878787876040518763ffffffff1660e01b81526004016101a3969594939291906107a5565b600060405180830381600087803b1580156101bd57600080fd5b505af11580156101d1573d6000803e3d6000fd5b50505050505050505050565b600160009054906101000a900473ffffffffffffffffffffffffffffffffffffffff1681565b60025481565b3373ffffffffffffffffffffffffffffffffffffffff16600160009054906101000a900473ffffffffffffffffffffffffffffffffffffffff1673ffffffffffffffffffffffffffffffffffffffff1614610299576040517f08c379a000000000000000000000000000000000000000000000000000000000815260040161029090610859565b60405180910390fd5b60035442116102dd576040517f08c379a00000000000000000000000000000000000000000000000000000000081526004016102d4906108c5565b60405180910390fd5b60004790506000600160009054906101000a900473ffffffffffffffffffffffffffffffffffffffff1673ffffffffffffffffffffffffffffffffffffffff164760405161032a90610916565b60006040518083038185875af1925050503d8060008114610367576040519150601f19603f3d011682016040523d82523d6000602084013e61036c565b606091505b50509050806103b0576040517f08c379a00000000000000000000000000000000000000000000000000000000081526004016103a790610977565b60405180910390fd5b7f7a355715549cfe7c1cba26304350343fbddc4b4f72d3ce3e7c27117dd20b5cb8826040516103df919061070b565b60405180910390a15050565b60008054906101000a900473ffffffffffffffffffffffffffffffffffffffff1681565b60035481565b600460009054906101000a900473ffffffffffffffffffffffffffffffffffffffff1681565b6000604051905090565b600080fd5b600080fd5b600073ffffffffffffffffffffffffffffffffffffffff82169050919050565b600061047a8261044f565b9050919050565b61048a8161046f565b811461049557600080fd5b50565b6000813590506104a781610481565b92915050565b6000819050919050565b6104c0816104ad565b81146104cb57600080fd5b50565b6000813590506104dd816104b7565b92915050565b600080fd5b600080fd5b6000601f19601f8301169050919050565b7f4e487b7100000000000000000000000000000000000000000000000000000000600052604160045260246000fd5b610536826104ed565b810181811067ffffffffffffffff82111715610555576105546104fe565b5b80604052505050565b600061056861043b565b9050610574828261052d565b919050565b600067ffffffffffffffff821115610594576105936104fe565b5b61059d826104ed565b9050602081019050919050565b82818337600083830152505050565b60006105cc6105c784610579565b61055e565b9050828152602081018484840111156105e8576105e76104e8565b5b6105f38482856105aa565b509392505050565b600082601f8301126106105761060f6104e3565b5b81356106208482602086016105b9565b91505092915050565b60008060008060008060c0878903121561064657610645610445565b5b600061065489828a01610498565b965050602061066589828a01610498565b955050604061067689828a016104ce565b945050606061068789828a016104ce565b935050608087013567ffffffffffffffff8111156106a8576106a761044a565b5b6106b489828a016105fb565b92505060a06106c589828a01610498565b9150509295509295509295565b6106db8161046f565b82525050565b60006020820190506106f660008301846106d2565b92915050565b610705816104ad565b82525050565b600060208201905061072060008301846106fc565b92915050565b600081519050919050565b600082825260208201905092915050565b60005b83811015610760578082015181840152602081019050610745565b60008484015250505050565b600061077782610726565b6107818185610731565b9350610791818560208601610742565b61079a816104ed565b840191505092915050565b600060c0820190506107ba60008301896106d2565b6107c760208301886106d2565b6107d460408301876106fc565b6107e160608301866106fc565b81810360808301526107f3818561076c565b905061080260a08301846106d2565b979650505050505050565b7f596f7520617265206e6f74207468652062656e65666963696172790000000000600082015250565b6000610843601b83610731565b915061084e8261080d565b602082019050919050565b6000602082019050818103600083015261087281610836565b9050919050565b7f42616c616e6365206973207374696c6c206c6f636b6564000000000000000000600082015250565b60006108af601783610731565b91506108ba82610879565b602082019050919050565b600060208201905081810360008301526108de816108a2565b9050919050565b600081905092915050565b50565b60006109006000836108e5565b915061090b826108f0565b600082019050919050565b6000610921826108f3565b9150819050919050565b7f446964206e6f742073656e640000000000000000000000000000000000000000600082015250565b6000610961600c83610731565b915061096c8261092b565b602082019050919050565b6000602082019050818103600083015261099081610954565b905091905056fea26469706673582212201fcdd0aefba136adc3e2a24006a1952e961c6896bada05336ac6e75b2ff03db964736f6c63430008110033",
  "linkReferences": {},
  "deployedLinkReferences": {}
}