{
  "_format": "hh-sol-artifact-1",
  "contractName": "Vesting",
  "sourceName": "contracts/Vested.sol",
  "abi": [
    {
      "inputs": [
        {
          "internalType": "address",
          "name": "_historyContract",
          "type": "address"
        },
        {
          "internalType": "address",
          "name": "_beneficiary",
          "type": "address"
        },
        {
          "internalType": "uint256",
          "name": "_numberOfClaims",
          "type": "uint256"
        }
      ],
      "stateMutability": "payable",
      "type": "constructor"
    },
    {
      "anonymous": false,
      "inputs": [
        {
          "indexed": false,
          "internalType": "uint256",
          "name": "",
          "type": "uint256"
        }
      ],
      "name": "Claimed",
      "type": "event"
    },
    {
      "inputs": [
        {
          "internalType": "address",
          "name": "contractAddress",
          "type": "address"
        },
        {
          "internalType": "address",
          "name": "_beneficiary",
          "type": "address"
        },
        {
          "internalType": "uint256",
          "name": "_value",
          "type": "uint256"
        },
        {
          "internalType": "uint256",
          "name": "_numberOfClaims",
          "type": "uint256"
        },
        {
          "internalType": "string",
          "name": "typeOf",
          "type": "string"
        },
        {
          "internalType": "address",
          "name": "_deployer",
          "type": "address"
        }
      ],
      "name": "addToHistory",
      "outputs": [],
      "stateMutability": "nonpayable",
      "type": "function"
    },
    {
      "inputs": [],
      "name": "beneficiary",
      "outputs": [
        {
          "internalType": "address",
          "name": "",
          "type": "address"
        }
      ],
      "stateMutability": "view",
      "type": "function"
    },
    {
      "inputs": [],
      "name": "claim",
      "outputs": [],
      "stateMutability": "nonpayable",
      "type": "function"
    },
    {
      "inputs": [],
      "name": "claimableBalance",
      "outputs": [
        {
          "internalType": "uint256",
          "name": "",
          "type": "uint256"
        }
      ],
      "stateMutability": "view",
      "type": "function"
    },
    {
      "inputs": [],
      "name": "depositor",
      "outputs": [
        {
          "internalType": "address",
          "name": "",
          "type": "address"
        }
      ],
      "stateMutability": "view",
      "type": "function"
    },
    {
      "inputs": [],
      "name": "historyContract",
      "outputs": [
        {
          "internalType": "address",
          "name": "",
          "type": "address"
        }
      ],
      "stateMutability": "view",
      "type": "function"
    },
    {
      "inputs": [],
      "name": "lastClaim",
      "outputs": [
        {
          "internalType": "uint256",
          "name": "",
          "type": "uint256"
        }
      ],
      "stateMutability": "view",
      "type": "function"
    },
    {
      "inputs": [],
      "name": "vestingAmount",
      "outputs": [
        {
          "internalType": "uint256",
          "name": "",
          "type": "uint256"
        }
      ],
      "stateMutability": "view",
      "type": "function"
    },
    {
      "inputs": [],
      "name": "vestingInterval",
      "outputs": [
        {
          "internalType": "uint256",
          "name": "",
          "type": "uint256"
        }
      ],
      "stateMutability": "view",
      "type": "function"
    }
  ],
  "bytecode": "0x608060405260405162001194380380620011948339818101604052810190620000299190620002ee565b82600660006101000a81548173ffffffffffffffffffffffffffffffffffffffff021916908373ffffffffffffffffffffffffffffffffffffffff160217905550336000806101000a81548173ffffffffffffffffffffffffffffffffffffffff021916908373ffffffffffffffffffffffffffffffffffffffff16021790555081600160006101000a81548173ffffffffffffffffffffffffffffffffffffffff021916908373ffffffffffffffffffffffffffffffffffffffff1602179055508034620000f9919062000379565b6002819055504260058190555062093a806004819055506200019d30600160009054906101000a900473ffffffffffffffffffffffffffffffffffffffff1634846040518060400160405280601081526020017f56657374696e6720436f6e74726163740000000000000000000000000000000081525060008054906101000a900473ffffffffffffffffffffffffffffffffffffffff16620001a660201b60201c565b505050620004e1565b600660009054906101000a900473ffffffffffffffffffffffffffffffffffffffff1673ffffffffffffffffffffffffffffffffffffffff16638d71a45a8787878787876040518763ffffffff1660e01b81526004016200020d969594939291906200046d565b600060405180830381600087803b1580156200022857600080fd5b505af11580156200023d573d6000803e3d6000fd5b50505050505050505050565b600080fd5b600073ffffffffffffffffffffffffffffffffffffffff82169050919050565b60006200027b826200024e565b9050919050565b6200028d816200026e565b81146200029957600080fd5b50565b600081519050620002ad8162000282565b92915050565b6000819050919050565b620002c881620002b3565b8114620002d457600080fd5b50565b600081519050620002e881620002bd565b92915050565b6000806000606084860312156200030a576200030962000249565b5b60006200031a868287016200029c565b93505060206200032d868287016200029c565b92505060406200034086828701620002d7565b9150509250925092565b7f4e487b7100000000000000000000000000000000000000000000000000000000600052601260045260246000fd5b60006200038682620002b3565b91506200039383620002b3565b925082620003a657620003a56200034a565b5b828204905092915050565b620003bc816200026e565b82525050565b620003cd81620002b3565b82525050565b600081519050919050565b600082825260208201905092915050565b60005b838110156200040f578082015181840152602081019050620003f2565b60008484015250505050565b6000601f19601f8301169050919050565b60006200043982620003d3565b620004458185620003de565b935062000457818560208601620003ef565b62000462816200041b565b840191505092915050565b600060c082019050620004846000830189620003b1565b620004936020830188620003b1565b620004a26040830187620003c2565b620004b16060830186620003c2565b8181036080830152620004c581856200042c565b9050620004d660a0830184620003b1565b979650505050505050565b610ca380620004f16000396000f3fe608060405234801561001057600080fd5b50600436106100925760003560e01c8063a8adb56411610066578063a8adb564146100f9578063b8e50cab14610117578063c4f4542314610135578063c7c4ff4614610153578063cc1589211461017157610092565b8062728f761461009757806327711fae146100b557806338af3eed146100d15780634e71d92d146100ef575b600080fd5b61009f61018f565b6040516100ac919061055f565b60405180910390f35b6100cf60048036038101906100ca919061075e565b610195565b005b6100d9610234565b6040516100e69190610816565b60405180910390f35b6100f761025a565b005b6101016104ea565b60405161010e919061055f565b60405180910390f35b61011f6104f0565b60405161012c919061055f565b60405180910390f35b61013d6104f6565b60405161014a919061055f565b60405180910390f35b61015b6104fc565b6040516101689190610816565b60405180910390f35b610179610520565b6040516101869190610816565b60405180910390f35b60025481565b600660009054906101000a900473ffffffffffffffffffffffffffffffffffffffff1673ffffffffffffffffffffffffffffffffffffffff16638d71a45a8787878787876040518763ffffffff1660e01b81526004016101fa969594939291906108b0565b600060405180830381600087803b15801561021457600080fd5b505af1158015610228573d6000803e3d6000fd5b50505050505050505050565b600160009054906101000a900473ffffffffffffffffffffffffffffffffffffffff1681565b3373ffffffffffffffffffffffffffffffffffffffff16600160009054906101000a900473ffffffffffffffffffffffffffffffffffffffff1673ffffffffffffffffffffffffffffffffffffffff16146102ea576040517f08c379a00000000000000000000000000000000000000000000000000000000081526004016102e190610964565b60405180910390fd5b6000471161032d576040517f08c379a0000000000000000000000000000000000000000000000000000000008152600401610324906109f6565b60405180910390fd5b6000600454600554426103409190610a45565b61034a9190610aa8565b90506002548161035a9190610ad9565b60038190555047600354111561037257476003819055505b6000600354116103b7576040517f08c379a00000000000000000000000000000000000000000000000000000000081526004016103ae90610b67565b60405180910390fd5b6000600160009054906101000a900473ffffffffffffffffffffffffffffffffffffffff1673ffffffffffffffffffffffffffffffffffffffff1660035460405161040190610bb8565b60006040518083038185875af1925050503d806000811461043e576040519150601f19603f3d011682016040523d82523d6000602084013e610443565b606091505b5050905080610487576040517f08c379a000000000000000000000000000000000000000000000000000000000815260040161047e90610c19565b60405180910390fd5b7f7a355715549cfe7c1cba26304350343fbddc4b4f72d3ce3e7c27117dd20b5cb86003546040516104b8919061055f565b60405180910390a1600454826104ce9190610ad9565b600560008282546104df9190610c39565b925050819055505050565b60055481565b60045481565b60035481565b60008054906101000a900473ffffffffffffffffffffffffffffffffffffffff1681565b600660009054906101000a900473ffffffffffffffffffffffffffffffffffffffff1681565b6000819050919050565b61055981610546565b82525050565b60006020820190506105746000830184610550565b92915050565b6000604051905090565b600080fd5b600080fd5b600073ffffffffffffffffffffffffffffffffffffffff82169050919050565b60006105b98261058e565b9050919050565b6105c9816105ae565b81146105d457600080fd5b50565b6000813590506105e6816105c0565b92915050565b6105f581610546565b811461060057600080fd5b50565b600081359050610612816105ec565b92915050565b600080fd5b600080fd5b6000601f19601f8301169050919050565b7f4e487b7100000000000000000000000000000000000000000000000000000000600052604160045260246000fd5b61066b82610622565b810181811067ffffffffffffffff8211171561068a57610689610633565b5b80604052505050565b600061069d61057a565b90506106a98282610662565b919050565b600067ffffffffffffffff8211156106c9576106c8610633565b5b6106d282610622565b9050602081019050919050565b82818337600083830152505050565b60006107016106fc846106ae565b610693565b90508281526020810184848401111561071d5761071c61061d565b5b6107288482856106df565b509392505050565b600082601f83011261074557610744610618565b5b81356107558482602086016106ee565b91505092915050565b60008060008060008060c0878903121561077b5761077a610584565b5b600061078989828a016105d7565b965050602061079a89828a016105d7565b95505060406107ab89828a01610603565b94505060606107bc89828a01610603565b935050608087013567ffffffffffffffff8111156107dd576107dc610589565b5b6107e989828a01610730565b92505060a06107fa89828a016105d7565b9150509295509295509295565b610810816105ae565b82525050565b600060208201905061082b6000830184610807565b92915050565b600081519050919050565b600082825260208201905092915050565b60005b8381101561086b578082015181840152602081019050610850565b60008484015250505050565b600061088282610831565b61088c818561083c565b935061089c81856020860161084d565b6108a581610622565b840191505092915050565b600060c0820190506108c56000830189610807565b6108d26020830188610807565b6108df6040830187610550565b6108ec6060830186610550565b81810360808301526108fe8185610877565b905061090d60a0830184610807565b979650505050505050565b7f596f7520617265206e6f74207468652062656e65666963696172790000000000600082015250565b600061094e601b8361083c565b915061095982610918565b602082019050919050565b6000602082019050818103600083015261097d81610941565b9050919050565b7f596f75206861766520616c726561647920636c61696d6564206576657279746860008201527f696e670000000000000000000000000000000000000000000000000000000000602082015250565b60006109e060238361083c565b91506109eb82610984565b604082019050919050565b60006020820190508181036000830152610a0f816109d3565b9050919050565b7f4e487b7100000000000000000000000000000000000000000000000000000000600052601160045260246000fd5b6000610a5082610546565b9150610a5b83610546565b9250828203905081811115610a7357610a72610a16565b5b92915050565b7f4e487b7100000000000000000000000000000000000000000000000000000000600052601260045260246000fd5b6000610ab382610546565b9150610abe83610546565b925082610ace57610acd610a79565b5b828204905092915050565b6000610ae482610546565b9150610aef83610546565b9250828202610afd81610546565b91508282048414831517610b1457610b13610a16565b5b5092915050565b7f4e6f742074696d6520746f20636c61696d207965742100000000000000000000600082015250565b6000610b5160168361083c565b9150610b5c82610b1b565b602082019050919050565b60006020820190508181036000830152610b8081610b44565b9050919050565b600081905092915050565b50565b6000610ba2600083610b87565b9150610bad82610b92565b600082019050919050565b6000610bc382610b95565b9150819050919050565b7f446964206e6f742073656e640000000000000000000000000000000000000000600082015250565b6000610c03600c8361083c565b9150610c0e82610bcd565b602082019050919050565b60006020820190508181036000830152610c3281610bf6565b9050919050565b6000610c4482610546565b9150610c4f83610546565b9250828201905080821115610c6757610c66610a16565b5b9291505056fea264697066735822122092719952a21bb564e611594c0be69ae62e29e37dd08758489fb2a5bf545e3a3d64736f6c63430008110033",
  "linkReferences": {},
  "deployedLinkReferences": {}
}