{
  "_format": "hh-sol-artifact-1",
  "contractName": "Escrow",
  "sourceName": "contracts/Escrow.sol",
  "abi": [
    {
      "inputs": [
        {
          "internalType": "address",
          "name": "_historyContract",
          "type": "address"
        },
        {
          "internalType": "address",
          "name": "_arbiter",
          "type": "address"
        },
        {
          "internalType": "address",
          "name": "_beneficiary",
          "type": "address"
        }
      ],
      "stateMutability": "payable",
      "type": "constructor"
    },
    {
      "anonymous": false,
      "inputs": [
        {
          "indexed": false,
          "internalType": "uint256",
          "name": "",
          "type": "uint256"
        }
      ],
      "name": "Approved",
      "type": "event"
    },
    {
      "anonymous": false,
      "inputs": [
        {
          "indexed": false,
          "internalType": "uint256",
          "name": "",
          "type": "uint256"
        }
      ],
      "name": "Cancelled",
      "type": "event"
    },
    {
      "inputs": [
        {
          "internalType": "address",
          "name": "contractAddress",
          "type": "address"
        },
        {
          "internalType": "address",
          "name": "_arbiter",
          "type": "address"
        },
        {
          "internalType": "address",
          "name": "_beneficiary",
          "type": "address"
        },
        {
          "internalType": "uint256",
          "name": "_value",
          "type": "uint256"
        },
        {
          "internalType": "string",
          "name": "typeOf",
          "type": "string"
        },
        {
          "internalType": "address",
          "name": "_deployer",
          "type": "address"
        }
      ],
      "name": "addToHistory",
      "outputs": [],
      "stateMutability": "nonpayable",
      "type": "function"
    },
    {
      "inputs": [],
      "name": "approve",
      "outputs": [],
      "stateMutability": "nonpayable",
      "type": "function"
    },
    {
      "inputs": [],
      "name": "arbiter",
      "outputs": [
        {
          "internalType": "address",
          "name": "",
          "type": "address"
        }
      ],
      "stateMutability": "view",
      "type": "function"
    },
    {
      "inputs": [],
      "name": "beneficiary",
      "outputs": [
        {
          "internalType": "address",
          "name": "",
          "type": "address"
        }
      ],
      "stateMutability": "view",
      "type": "function"
    },
    {
      "inputs": [],
      "name": "cancel",
      "outputs": [],
      "stateMutability": "nonpayable",
      "type": "function"
    },
    {
      "inputs": [],
      "name": "depositor",
      "outputs": [
        {
          "internalType": "address",
          "name": "",
          "type": "address"
        }
      ],
      "stateMutability": "view",
      "type": "function"
    },
    {
      "inputs": [],
      "name": "historyContract",
      "outputs": [
        {
          "internalType": "address",
          "name": "",
          "type": "address"
        }
      ],
      "stateMutability": "view",
      "type": "function"
    },
    {
      "inputs": [],
      "name": "value",
      "outputs": [
        {
          "internalType": "uint256",
          "name": "",
          "type": "uint256"
        }
      ],
      "stateMutability": "view",
      "type": "function"
    }
  ],
  "bytecode": "0x6080604052604051620010c5380380620010c583398181016040528101906200002991906200038b565b82600460006101000a81548173ffffffffffffffffffffffffffffffffffffffff021916908373ffffffffffffffffffffffffffffffffffffffff160217905550816000806101000a81548173ffffffffffffffffffffffffffffffffffffffff021916908373ffffffffffffffffffffffffffffffffffffffff1602179055503373ffffffffffffffffffffffffffffffffffffffff1660008054906101000a900473ffffffffffffffffffffffffffffffffffffffff1673ffffffffffffffffffffffffffffffffffffffff16036200013b576040517f08c379a0000000000000000000000000000000000000000000000000000000008152600401620001329062000448565b60405180910390fd5b80600160006101000a81548173ffffffffffffffffffffffffffffffffffffffff021916908373ffffffffffffffffffffffffffffffffffffffff1602179055503460038190555033600260006101000a81548173ffffffffffffffffffffffffffffffffffffffff021916908373ffffffffffffffffffffffffffffffffffffffff160217905550620002753060008054906101000a900473ffffffffffffffffffffffffffffffffffffffff16600160009054906101000a900473ffffffffffffffffffffffffffffffffffffffff166003546040518060400160405280600d81526020017f53696d706c6520457363726f7700000000000000000000000000000000000000815250600260009054906101000a900473ffffffffffffffffffffffffffffffffffffffff166200027e60201b60201c565b50505062000593565b600460009054906101000a900473ffffffffffffffffffffffffffffffffffffffff1673ffffffffffffffffffffffffffffffffffffffff1663b0b160868787878787876040518763ffffffff1660e01b8152600401620002e5969594939291906200051f565b600060405180830381600087803b1580156200030057600080fd5b505af115801562000315573d6000803e3d6000fd5b50505050505050505050565b600080fd5b600073ffffffffffffffffffffffffffffffffffffffff82169050919050565b6000620003538262000326565b9050919050565b620003658162000346565b81146200037157600080fd5b50565b60008151905062000385816200035a565b92915050565b600080600060608486031215620003a757620003a662000321565b5b6000620003b78682870162000374565b9350506020620003ca8682870162000374565b9250506040620003dd8682870162000374565b9150509250925092565b600082825260208201905092915050565b7f4465706f7369746f722063616e6e6f74206265207468652041726269746f7200600082015250565b600062000430601f83620003e7565b91506200043d82620003f8565b602082019050919050565b60006020820190508181036000830152620004638162000421565b9050919050565b620004758162000346565b82525050565b6000819050919050565b62000490816200047b565b82525050565b600081519050919050565b60005b83811015620004c1578082015181840152602081019050620004a4565b60008484015250505050565b6000601f19601f8301169050919050565b6000620004eb8262000496565b620004f78185620003e7565b935062000509818560208601620004a1565b6200051481620004cd565b840191505092915050565b600060c0820190506200053660008301896200046a565b6200054560208301886200046a565b6200055460408301876200046a565b62000563606083018662000485565b8181036080830152620005778185620004de565b90506200058860a08301846200046a565b979650505050505050565b610b2280620005a36000396000f3fe608060405234801561001057600080fd5b50600436106100885760003560e01c8063c7c4ff461161005b578063c7c4ff46146100ef578063cc1589211461010d578063ea8a1af01461012b578063fe25e00a1461013557610088565b806312424e3f1461008d57806338af3eed146100975780633fa4f245146100b55780634c6ce8e2146100d3575b600080fd5b610095610153565b005b61009f61030a565b6040516100ac919061063d565b60405180910390f35b6100bd610330565b6040516100ca9190610671565b60405180910390f35b6100ed60048036038101906100e8919061083e565b610336565b005b6100f76103d5565b604051610104919061063d565b60405180910390f35b6101156103fb565b604051610122919061063d565b60405180910390f35b610133610421565b005b61013d6105d8565b60405161014a919061063d565b60405180910390f35b60008054906101000a900473ffffffffffffffffffffffffffffffffffffffff1673ffffffffffffffffffffffffffffffffffffffff163373ffffffffffffffffffffffffffffffffffffffff16146101e1576040517f08c379a00000000000000000000000000000000000000000000000000000000081526004016101d890610944565b60405180910390fd5b60004790506000600160009054906101000a900473ffffffffffffffffffffffffffffffffffffffff1673ffffffffffffffffffffffffffffffffffffffff168260405161022e90610995565b60006040518083038185875af1925050503d806000811461026b576040519150601f19603f3d011682016040523d82523d6000602084013e610270565b606091505b50509050806102b4576040517f08c379a00000000000000000000000000000000000000000000000000000000081526004016102ab906109f6565b60405180910390fd5b7f3ad93af63cb7967b23e4fb500b7d7d28b07516325dcf341f88bebf959d82c1cb826040516102e39190610671565b60405180910390a16001600460146101000a81548160ff0219169083151502179055505050565b600160009054906101000a900473ffffffffffffffffffffffffffffffffffffffff1681565b60035481565b600460009054906101000a900473ffffffffffffffffffffffffffffffffffffffff1673ffffffffffffffffffffffffffffffffffffffff1663b0b160868787878787876040518763ffffffff1660e01b815260040161039b96959493929190610a84565b600060405180830381600087803b1580156103b557600080fd5b505af11580156103c9573d6000803e3d6000fd5b50505050505050505050565b600260009054906101000a900473ffffffffffffffffffffffffffffffffffffffff1681565b600460009054906101000a900473ffffffffffffffffffffffffffffffffffffffff1681565b60008054906101000a900473ffffffffffffffffffffffffffffffffffffffff1673ffffffffffffffffffffffffffffffffffffffff163373ffffffffffffffffffffffffffffffffffffffff16146104af576040517f08c379a00000000000000000000000000000000000000000000000000000000081526004016104a690610944565b60405180910390fd5b60004790506000600260009054906101000a900473ffffffffffffffffffffffffffffffffffffffff1673ffffffffffffffffffffffffffffffffffffffff16826040516104fc90610995565b60006040518083038185875af1925050503d8060008114610539576040519150601f19603f3d011682016040523d82523d6000602084013e61053e565b606091505b5050905080610582576040517f08c379a0000000000000000000000000000000000000000000000000000000008152600401610579906109f6565b60405180910390fd5b7fc41d93b8bfbf9fd7cf5bfe271fd649ab6a6fec0ea101c23b82a2a28eca2533a9826040516105b19190610671565b60405180910390a16001600460156101000a81548160ff0219169083151502179055505050565b60008054906101000a900473ffffffffffffffffffffffffffffffffffffffff1681565b600073ffffffffffffffffffffffffffffffffffffffff82169050919050565b6000610627826105fc565b9050919050565b6106378161061c565b82525050565b6000602082019050610652600083018461062e565b92915050565b6000819050919050565b61066b81610658565b82525050565b60006020820190506106866000830184610662565b92915050565b6000604051905090565b600080fd5b600080fd5b6106a98161061c565b81146106b457600080fd5b50565b6000813590506106c6816106a0565b92915050565b6106d581610658565b81146106e057600080fd5b50565b6000813590506106f2816106cc565b92915050565b600080fd5b600080fd5b6000601f19601f8301169050919050565b7f4e487b7100000000000000000000000000000000000000000000000000000000600052604160045260246000fd5b61074b82610702565b810181811067ffffffffffffffff8211171561076a57610769610713565b5b80604052505050565b600061077d61068c565b90506107898282610742565b919050565b600067ffffffffffffffff8211156107a9576107a8610713565b5b6107b282610702565b9050602081019050919050565b82818337600083830152505050565b60006107e16107dc8461078e565b610773565b9050828152602081018484840111156107fd576107fc6106fd565b5b6108088482856107bf565b509392505050565b600082601f830112610825576108246106f8565b5b81356108358482602086016107ce565b91505092915050565b60008060008060008060c0878903121561085b5761085a610696565b5b600061086989828a016106b7565b965050602061087a89828a016106b7565b955050604061088b89828a016106b7565b945050606061089c89828a016106e3565b935050608087013567ffffffffffffffff8111156108bd576108bc61069b565b5b6108c989828a01610810565b92505060a06108da89828a016106b7565b9150509295509295509295565b600082825260208201905092915050565b7f596f7520617265206e6f74207468652061726269747265720000000000000000600082015250565b600061092e6018836108e7565b9150610939826108f8565b602082019050919050565b6000602082019050818103600083015261095d81610921565b9050919050565b600081905092915050565b50565b600061097f600083610964565b915061098a8261096f565b600082019050919050565b60006109a082610972565b9150819050919050565b7f4661696c656420746f2073656e64204574686572000000000000000000000000600082015250565b60006109e06014836108e7565b91506109eb826109aa565b602082019050919050565b60006020820190508181036000830152610a0f816109d3565b9050919050565b600081519050919050565b60005b83811015610a3f578082015181840152602081019050610a24565b60008484015250505050565b6000610a5682610a16565b610a6081856108e7565b9350610a70818560208601610a21565b610a7981610702565b840191505092915050565b600060c082019050610a99600083018961062e565b610aa6602083018861062e565b610ab3604083018761062e565b610ac06060830186610662565b8181036080830152610ad28185610a4b565b9050610ae160a083018461062e565b97965050505050505056fea2646970667358221220fed3cf964d88694aae10e3ac2245d6b6a281f04f53f04dbf4279d70127266bc164736f6c63430008110033",
  "linkReferences": {},
  "deployedLinkReferences": {}
}